{
  "transactions": [
    {
      "hash": "0x689b1d7b620503ca06fe6c9e3addc06b33047847e0d614c09f9f622e31bf3c93",
      "transactionType": "CALL",
      "contractName": null,
      "contractAddress": "0x360e68faccca8ca495c1b759fd9eee466db9fb32",
      "function": "initialize((address,address,uint24,int24,address),uint160)",
      "arguments": [
        "(0x6E7740D9dbA934811FC891dD370723CDfC8c06f5, 0xca7A320788088a333Cfe93B4C6d3035D03759779, 3000, 60, 0xF5fbcF77C79eB93f8bc7A1211f92797534488044)",
        "79228162514264337593543950336"
      ],
      "transaction": {
        "from": "0x39699c011d062dbdb058a81644e40002e88e5ce8",
        "to": "0x360e68faccca8ca495c1b759fd9eee466db9fb32",
        "gas": "0x127b6",
        "value": "0x0",
        "input": "0x6276cbbe0000000000000000000000006e7740d9dba934811fc891dd370723cdfc8c06f5000000000000000000000000ca7a320788088a333cfe93b4c6d3035d037597790000000000000000000000000000000000000000000000000000000000000bb8000000000000000000000000000000000000000000000000000000000000003c000000000000000000000000f5fbcf77c79eb93f8bc7a1211f927975344880440000000000000000000000000000000000000001000000000000000000000000",
        "nonce": "0x4",
        "chainId": "0xc4"
      },
      "additionalContracts": [],
      "isFixedGasLimit": false
    }
  ],
  "receipts": [
    {
      "type": "0x2",
      "status": "0x1",
      "cumulativeGasUsed": "0x881dd",
      "logs": [
        {
          "address": "0x360e68faccca8ca495c1b759fd9eee466db9fb32",
          "topics": [
            "0xdd466e674ea557f56295e2d0218a125ea4b4f0f6f3307b95f85e6110838d6438",
            "0x306406af8a828a36e9cc234e4236a6d5f026d1059b2cd5c9d0619216ae4b4711",
            "0x0000000000000000000000006e7740d9dba934811fc891dd370723cdfc8c06f5",
            "0x000000000000000000000000ca7a320788088a333cfe93b4c6d3035d03759779"
          ],
          "data": "0x0000000000000000000000000000000000000000000000000000000000000bb8000000000000000000000000000000000000000000000000000000000000003c000000000000000000000000f5fbcf77c79eb93f8bc7a1211f9279753448804400000000000000000000000000000000000000010000000000000000000000000000000000000000000000000000000000000000000000000000000000000000",
          "blockHash": "0xd4096e4fc87a185d23aa9ac62078c566f9e9b30d46017f495e5547c4fc9c80b0",
          "blockNumber": "0x3a5f064",
          "blockTimestamp": "0x6a1845f0",
          "transactionHash": "0x689b1d7b620503ca06fe6c9e3addc06b33047847e0d614c09f9f622e31bf3c93",
          "transactionIndex": "0x4",
          "logIndex": "0x15",
          "removed": false
        }
      ],
      "logsBloom": "0x00000000000000000000000000000000000000000000000000000000000000000000000000000000000000200000008000000000000000000000000000000000000000000000000001000000000000000000000000000000000000000000000000000000000000000000000000000000000000000000000000400000000000000000000002000008000000000000000000000001000000000000008000200000000000000000000000000001000000000000000000000000000000000000000000001040000000000000000000000000040004000000000000000000000000000000000000000000000000000000000000000000000000000000000000000008",
      "transactionHash": "0x689b1d7b620503ca06fe6c9e3addc06b33047847e0d614c09f9f622e31bf3c93",
      "transactionIndex": "0x4",
      "blockHash": "0xd4096e4fc87a185d23aa9ac62078c566f9e9b30d46017f495e5547c4fc9c80b0",
      "blockNumber": "0x3a5f064",
      "gasUsed": "0xca33",
      "effectiveGasPrice": "0x1312d01",
      "blobGasUsed": "0xdac0",
      "from": "0x39699c011d062dbdb058a81644e40002e88e5ce8",
      "to": "0x360e68faccca8ca495c1b759fd9eee466db9fb32",
      "contractAddress": null
    }
  ],
  "libraries": [],
  "pending": [],
  "returns": {},
  "timestamp": 1779975663727,
  "chain": 196,
  "commit": null
}