{
  "transactions": [
    {
      "hash": "0xd94437fde4f3f7e8a8c589c6d3a04d718577e645c81c73cae27f375ba4ee420c",
      "transactionType": "CALL",
      "contractName": null,
      "contractAddress": "0xffe73a1e0fb90fe554871d086a731dd3c5a22a88",
      "function": "modifyLiquidity((address,address,uint24,int24,address),(int24,int24,int256,bytes32),bytes)",
      "arguments": [
        "(0x6E7740D9dbA934811FC891dD370723CDfC8c06f5, 0xca7A320788088a333Cfe93B4C6d3035D03759779, 3000, 60, 0xF5fbcF77C79eB93f8bc7A1211f92797534488044)",
        "(-600, 600, 1000000000000000000, 0x0000000000000000000000000000000000000000000000000000000000000000)",
        "0x"
      ],
      "transaction": {
        "from": "0x39699c011d062dbdb058a81644e40002e88e5ce8",
        "to": "0xffe73a1e0fb90fe554871d086a731dd3c5a22a88",
        "gas": "0x63db5",
        "value": "0x0",
        "input": "0x5a6bcfda0000000000000000000000006e7740d9dba934811fc891dd370723cdfc8c06f5000000000000000000000000ca7a320788088a333cfe93b4c6d3035d037597790000000000000000000000000000000000000000000000000000000000000bb8000000000000000000000000000000000000000000000000000000000000003c000000000000000000000000f5fbcf77c79eb93f8bc7a1211f92797534488044fffffffffffffffffffffffffffffffffffffffffffffffffffffffffffffda800000000000000000000000000000000000000000000000000000000000002580000000000000000000000000000000000000000000000000de0b6b3a7640000000000000000000000000000000000000000000000000000000000000000000000000000000000000000000000000000000000000000000000000000000001400000000000000000000000000000000000000000000000000000000000000000",
        "nonce": "0x9",
        "chainId": "0xc4"
      },
      "additionalContracts": [],
      "isFixedGasLimit": false
    }
  ],
  "receipts": [
    {
      "type": "0x2",
      "status": "0x1",
      "cumulativeGasUsed": "0x112644",
      "logs": [
        {
          "address": "0x360e68faccca8ca495c1b759fd9eee466db9fb32",
          "topics": [
            "0xf208f4912782fd25c7f114ca3723a2d5dd6f3bcc3ac8db5af63baa85f711d5ec",
            "0x306406af8a828a36e9cc234e4236a6d5f026d1059b2cd5c9d0619216ae4b4711",
            "0x000000000000000000000000ffe73a1e0fb90fe554871d086a731dd3c5a22a88"
          ],
          "data": "0xfffffffffffffffffffffffffffffffffffffffffffffffffffffffffffffda800000000000000000000000000000000000000000000000000000000000002580000000000000000000000000000000000000000000000000de0b6b3a76400000000000000000000000000000000000000000000000000000000000000000000",
          "blockHash": "0xa0c0ff16f444e0da47c754602085a4d2fd63d65cfda31563df2538ef66ffbf9f",
          "blockNumber": "0x3a5f255",
          "blockTimestamp": "0x6a1847e1",
          "transactionHash": "0xd94437fde4f3f7e8a8c589c6d3a04d718577e645c81c73cae27f375ba4ee420c",
          "transactionIndex": "0x4",
          "logIndex": "0x1e",
          "removed": false
        },
        {
          "address": "0x6e7740d9dba934811fc891dd370723cdfc8c06f5",
          "topics": [
            "0xddf252ad1be2c89b69c2b068fc378daa952ba7f163c4a11628f55a4df523b3ef",
            "0x00000000000000000000000039699c011d062dbdb058a81644e40002e88e5ce8",
            "0x000000000000000000000000360e68faccca8ca495c1b759fd9eee466db9fb32"
          ],
          "data": "0x0000000000000000000000000000000000000000000000000068fe4e8b7e8592",
          "blockHash": "0xa0c0ff16f444e0da47c754602085a4d2fd63d65cfda31563df2538ef66ffbf9f",
          "blockNumber": "0x3a5f255",
          "blockTimestamp": "0x6a1847e1",
          "transactionHash": "0xd94437fde4f3f7e8a8c589c6d3a04d718577e645c81c73cae27f375ba4ee420c",
          "transactionIndex": "0x4",
          "logIndex": "0x1f",
          "removed": false
        },
        {
          "address": "0xca7a320788088a333cfe93b4c6d3035d03759779",
          "topics": [
            "0xddf252ad1be2c89b69c2b068fc378daa952ba7f163c4a11628f55a4df523b3ef",
            "0x00000000000000000000000039699c011d062dbdb058a81644e40002e88e5ce8",
            "0x000000000000000000000000360e68faccca8ca495c1b759fd9eee466db9fb32"
          ],
          "data": "0x0000000000000000000000000000000000000000000000000068fe4e8b7e8592",
          "blockHash": "0xa0c0ff16f444e0da47c754602085a4d2fd63d65cfda31563df2538ef66ffbf9f",
          "blockNumber": "0x3a5f255",
          "blockTimestamp": "0x6a1847e1",
          "transactionHash": "0xd94437fde4f3f7e8a8c589c6d3a04d718577e645c81c73cae27f375ba4ee420c",
          "transactionIndex": "0x4",
          "logIndex": "0x20",
          "removed": false
        }
      ],
      "logsBloom": "0x00000000000000000000000000000000000000000000000000000200000000000000000000000000000000000800008200000000000000000100000000000000000000000000000001040008000000000000000000000040000000000000000000000000200001000008000000000000000000000000800000000010000000000000000001000000000000000000000000000000000000000000000000000000000404000000000000000000000000000000000001000000000000000000100000001002000000000400000000000000040004000000000000000000000000000000000002000000000000000000000004000000000000000000000000000008",
      "transactionHash": "0xd94437fde4f3f7e8a8c589c6d3a04d718577e645c81c73cae27f375ba4ee420c",
      "transactionIndex": "0x4",
      "blockHash": "0xa0c0ff16f444e0da47c754602085a4d2fd63d65cfda31563df2538ef66ffbf9f",
      "blockNumber": "0x3a5f255",
      "gasUsed": "0x484b7",
      "effectiveGasPrice": "0x1312d01",
      "blobGasUsed": "0x10040",
      "from": "0x39699c011d062dbdb058a81644e40002e88e5ce8",
      "to": "0xffe73a1e0fb90fe554871d086a731dd3c5a22a88",
      "contractAddress": null
    }
  ],
  "libraries": [],
  "pending": [],
  "returns": {},
  "timestamp": 1779976160959,
  "chain": 196,
  "commit": null
}