{
  "transactions": [
    {
      "hash": "0xcd2214462f37aab02346d3086d786d42fc101439e01b4c85bc7b059e4ab49188",
      "transactionType": "CALL",
      "contractName": null,
      "contractAddress": "0xe7041d28153597ddc8aac3a89fb98c6d5e52144e",
      "function": "swap((address,address,uint24,int24,address),(bool,int256,uint160),(bool,bool),bytes)",
      "arguments": [
        "(0x6E7740D9dbA934811FC891dD370723CDfC8c06f5, 0xca7A320788088a333Cfe93B4C6d3035D03759779, 3000, 60, 0xF5fbcF77C79eB93f8bc7A1211f92797534488044)",
        "(true, -10000000000000000, 4295128740)",
        "(false, false)",
        "0x00000000000000000000000039699c011d062dbdb058a81644e40002e88e5ce8"
      ],
      "transaction": {
        "from": "0x39699c011d062dbdb058a81644e40002e88e5ce8",
        "to": "0xe7041d28153597ddc8aac3a89fb98c6d5e52144e",
        "gas": "0x795d9",
        "value": "0x0",
        "input": "0x2229d0b40000000000000000000000006e7740d9dba934811fc891dd370723cdfc8c06f5000000000000000000000000ca7a320788088a333cfe93b4c6d3035d037597790000000000000000000000000000000000000000000000000000000000000bb8000000000000000000000000000000000000000000000000000000000000003c000000000000000000000000f5fbcf77c79eb93f8bc7a1211f927975344880440000000000000000000000000000000000000000000000000000000000000001ffffffffffffffffffffffffffffffffffffffffffffffffffdc790d903f000000000000000000000000000000000000000000000000000000000001000276a4000000000000000000000000000000000000000000000000000000000000000000000000000000000000000000000000000000000000000000000000000000000000000000000000000000000000000000000000000000000000000000000160000000000000000000000000000000000000000000000000000000000000002000000000000000000000000039699c011d062dbdb058a81644e40002e88e5ce8",
        "nonce": "0xc",
        "chainId": "0xc4"
      },
      "additionalContracts": [],
      "isFixedGasLimit": false
    }
  ],
  "receipts": [
    {
      "type": "0x2",
      "status": "0x1",
      "cumulativeGasUsed": "0x7cab2",
      "logs": [
        {
          "address": "0x360e68faccca8ca495c1b759fd9eee466db9fb32",
          "topics": [
            "0x40e9cecb9f5f1f1c5b9c97dec2917b7ee92e57ba5563708daca94dd84ad7112f",
            "0x306406af8a828a36e9cc234e4236a6d5f026d1059b2cd5c9d0619216ae4b4711",
            "0x000000000000000000000000e7041d28153597ddc8aac3a89fb98c6d5e52144e"
          ],
          "data": "0xffffffffffffffffffffffffffffffffffffffffffffffffffdc790d903f00000000000000000000000000000000000000000000000000000023122667c62b340000000000000000000000000000000000000000fd790e5d4347808dc857a93c0000000000000000000000000000000000000000000000000de0b6b3a7640000ffffffffffffffffffffffffffffffffffffffffffffffffffffffffffffff390000000000000000000000000000000000000000000000000000000000000bb8",
          "blockHash": "0x33130c8428958642d29ad2b47898424bd8ca03ecb294550cc22cd0e93142cb9c",
          "blockNumber": "0x3a5f2b0",
          "blockTimestamp": "0x6a18483c",
          "transactionHash": "0xcd2214462f37aab02346d3086d786d42fc101439e01b4c85bc7b059e4ab49188",
          "transactionIndex": "0x2",
          "logIndex": "0x2",
          "removed": false
        },
        {
          "address": "0xca7a320788088a333cfe93b4c6d3035d03759779",
          "topics": [
            "0xddf252ad1be2c89b69c2b068fc378daa952ba7f163c4a11628f55a4df523b3ef",
            "0x000000000000000000000000360e68faccca8ca495c1b759fd9eee466db9fb32",
            "0x000000000000000000000000f5fbcf77c79eb93f8bc7a1211f92797534488044"
          ],
          "data": "0x00000000000000000000000000000000000000000000000000001aef381e8be7",
          "blockHash": "0x33130c8428958642d29ad2b47898424bd8ca03ecb294550cc22cd0e93142cb9c",
          "blockNumber": "0x3a5f2b0",
          "blockTimestamp": "0x6a18483c",
          "transactionHash": "0xcd2214462f37aab02346d3086d786d42fc101439e01b4c85bc7b059e4ab49188",
          "transactionIndex": "0x2",
          "logIndex": "0x3",
          "removed": false
        },
        {
          "address": "0xf5fbcf77c79eb93f8bc7a1211f92797534488044",
          "topics": [
            "0x92ddf4edbed254ad56b610c6375a1ce64c8b39b763ecaed235b32f236fe17711",
            "0x0000000000000000000000000000000000000000000000000000000000000000",
            "0x00000000000000000000000039699c011d062dbdb058a81644e40002e88e5ce8",
            "0x306406af8a828a36e9cc234e4236a6d5f026d1059b2cd5c9d0619216ae4b4711"
          ],
          "data": "0xffffffffffffffffffffffffffffffffffffffffffffffffffffffffffffff390000000000000000000000000000000000000000000000000023122667c62b3400000000000000000000000000000000000000000000000000001aef381e8be7000000000000000000000000ca7a320788088a333cfe93b4c6d3035d03759779",
          "blockHash": "0x33130c8428958642d29ad2b47898424bd8ca03ecb294550cc22cd0e93142cb9c",
          "blockNumber": "0x3a5f2b0",
          "blockTimestamp": "0x6a18483c",
          "transactionHash": "0xcd2214462f37aab02346d3086d786d42fc101439e01b4c85bc7b059e4ab49188",
          "transactionIndex": "0x2",
          "logIndex": "0x4",
          "removed": false
        },
        {
          "address": "0x6e7740d9dba934811fc891dd370723cdfc8c06f5",
          "topics": [
            "0xddf252ad1be2c89b69c2b068fc378daa952ba7f163c4a11628f55a4df523b3ef",
            "0x00000000000000000000000039699c011d062dbdb058a81644e40002e88e5ce8",
            "0x000000000000000000000000360e68faccca8ca495c1b759fd9eee466db9fb32"
          ],
          "data": "0x000000000000000000000000000000000000000000000000002386f26fc10000",
          "blockHash": "0x33130c8428958642d29ad2b47898424bd8ca03ecb294550cc22cd0e93142cb9c",
          "blockNumber": "0x3a5f2b0",
          "blockTimestamp": "0x6a18483c",
          "transactionHash": "0xcd2214462f37aab02346d3086d786d42fc101439e01b4c85bc7b059e4ab49188",
          "transactionIndex": "0x2",
          "logIndex": "0x5",
          "removed": false
        },
        {
          "address": "0xca7a320788088a333cfe93b4c6d3035d03759779",
          "topics": [
            "0xddf252ad1be2c89b69c2b068fc378daa952ba7f163c4a11628f55a4df523b3ef",
            "0x000000000000000000000000360e68faccca8ca495c1b759fd9eee466db9fb32",
            "0x00000000000000000000000039699c011d062dbdb058a81644e40002e88e5ce8"
          ],
          "data": "0x0000000000000000000000000000000000000000000000000022f7372fa79f4d",
          "blockHash": "0x33130c8428958642d29ad2b47898424bd8ca03ecb294550cc22cd0e93142cb9c",
          "blockNumber": "0x3a5f2b0",
          "blockTimestamp": "0x6a18483c",
          "transactionHash": "0xcd2214462f37aab02346d3086d786d42fc101439e01b4c85bc7b059e4ab49188",
          "transactionIndex": "0x2",
          "logIndex": "0x6",
          "removed": false
        }
      ],
      "logsBloom": "0x0000000000000000000000000000000000000000000000000000020000000000000000000000000000000000080008820000000004000000010000000000000000000000000000000104000800020000000000000004006002000004000800000000000002000100000000000000080000000000000080000000001000000000080000000000000000000000000000000000000000000000000000000000000000000000000001000000000000000000000000000108000000000000000010000000100200000000040000000000000004000400000000000000800000002000000000000200000000400000000000000000000000000000000000000000004c",
      "transactionHash": "0xcd2214462f37aab02346d3086d786d42fc101439e01b4c85bc7b059e4ab49188",
      "transactionIndex": "0x2",
      "blockHash": "0x33130c8428958642d29ad2b47898424bd8ca03ecb294550cc22cd0e93142cb9c",
      "blockNumber": "0x3a5f2b0",
      "gasUsed": "0x57dde",
      "effectiveGasPrice": "0x1312d01",
      "blobGasUsed": "0x12110",
      "from": "0x39699c011d062dbdb058a81644e40002e88e5ce8",
      "to": "0xe7041d28153597ddc8aac3a89fb98c6d5e52144e",
      "contractAddress": null
    }
  ],
  "libraries": [],
  "pending": [],
  "returns": {},
  "timestamp": 1779976251644,
  "chain": 196,
  "commit": null
}