{
  "transactions": [
    {
      "hash": "0x07eee1b5320bb8d9b17aa0ee89fe7d30a2315dffec978f14d226560db33fb7ef",
      "transactionType": "CALL",
      "contractName": null,
      "contractAddress": "0x6e7740d9dba934811fc891dd370723cdfc8c06f5",
      "function": "approve(address,uint256)",
      "arguments": [
        "0xE7041D28153597DDc8Aac3A89Fb98C6D5e52144E",
        "115792089237316195423570985008687907853269984665640564039457584007913129639935"
      ],
      "transaction": {
        "from": "0x39699c011d062dbdb058a81644e40002e88e5ce8",
        "to": "0x6e7740d9dba934811fc891dd370723cdfc8c06f5",
        "gas": "0xf984",
        "value": "0x0",
        "input": "0x095ea7b3000000000000000000000000e7041d28153597ddc8aac3a89fb98c6d5e52144effffffffffffffffffffffffffffffffffffffffffffffffffffffffffffffff",
        "nonce": "0xa",
        "chainId": "0xc4"
      },
      "additionalContracts": [],
      "isFixedGasLimit": false
    },
    {
      "hash": "0x4a40ceefacb41524fa9ca7f1fbeb59ed18687cf47499f301d51ae705dabe2065",
      "transactionType": "CALL",
      "contractName": null,
      "contractAddress": "0xca7a320788088a333cfe93b4c6d3035d03759779",
      "function": "approve(address,uint256)",
      "arguments": [
        "0xE7041D28153597DDc8Aac3A89Fb98C6D5e52144E",
        "115792089237316195423570985008687907853269984665640564039457584007913129639935"
      ],
      "transaction": {
        "from": "0x39699c011d062dbdb058a81644e40002e88e5ce8",
        "to": "0xca7a320788088a333cfe93b4c6d3035d03759779",
        "gas": "0xf984",
        "value": "0x0",
        "input": "0x095ea7b3000000000000000000000000e7041d28153597ddc8aac3a89fb98c6d5e52144effffffffffffffffffffffffffffffffffffffffffffffffffffffffffffffff",
        "nonce": "0xb",
        "chainId": "0xc4"
      },
      "additionalContracts": [],
      "isFixedGasLimit": false
    }
  ],
  "receipts": [
    {
      "type": "0x2",
      "status": "0x1",
      "cumulativeGasUsed": "0x662e6",
      "logs": [
        {
          "address": "0x6e7740d9dba934811fc891dd370723cdfc8c06f5",
          "topics": [
            "0x8c5be1e5ebec7d5bd14f71427d1e84f3dd0314c0f7b2291e5b200ac8c7c3b925",
            "0x00000000000000000000000039699c011d062dbdb058a81644e40002e88e5ce8",
            "0x000000000000000000000000e7041d28153597ddc8aac3a89fb98c6d5e52144e"
          ],
          "data": "0xffffffffffffffffffffffffffffffffffffffffffffffffffffffffffffffff",
          "blockHash": "0x6658df6b89f7c40d7070cf61ae0f7506dbc06e5a751571801389ea4f8b3d270f",
          "blockNumber": "0x3a5f28a",
          "blockTimestamp": "0x6a184816",
          "transactionHash": "0x4a40ceefacb41524fa9ca7f1fbeb59ed18687cf47499f301d51ae705dabe2065",
          "transactionIndex": "0x2",
          "logIndex": "0x11",
          "removed": false
        }
      ],
      "logsBloom": "0x00000000000000000000000000000000000000000000000000000200000000000000000000000000000000000000000000000000000000000100000000200000000000000000000000040000000000000000000000000040020000000000000000000000000001000000000000000000000000000000000000000000000000000800000000000000000000000000000000000000000000000000000000000000020000000000010000000000000000000000000000000000000000000000000000000000000000000000000000000000000000000000000000000000000000000010000002000000000000000000000000000000000000000000000000000000",
      "transactionHash": "0x4a40ceefacb41524fa9ca7f1fbeb59ed18687cf47499f301d51ae705dabe2065",
      "transactionIndex": "0x2",
      "blockHash": "0x6658df6b89f7c40d7070cf61ae0f7506dbc06e5a751571801389ea4f8b3d270f",
      "blockNumber": "0x3a5f28a",
      "gasUsed": "0xb4a6",
      "effectiveGasPrice": "0x1312d01",
      "blobGasUsed": "0x9c40",
      "from": "0x39699c011d062dbdb058a81644e40002e88e5ce8",
      "to": "0x6e7740d9dba934811fc891dd370723cdfc8c06f5",
      "contractAddress": null
    },
    {
      "type": "0x2",
      "status": "0x1",
      "cumulativeGasUsed": "0x7178c",
      "logs": [
        {
          "address": "0xca7a320788088a333cfe93b4c6d3035d03759779",
          "topics": [
            "0x8c5be1e5ebec7d5bd14f71427d1e84f3dd0314c0f7b2291e5b200ac8c7c3b925",
            "0x00000000000000000000000039699c011d062dbdb058a81644e40002e88e5ce8",
            "0x000000000000000000000000e7041d28153597ddc8aac3a89fb98c6d5e52144e"
          ],
          "data": "0xffffffffffffffffffffffffffffffffffffffffffffffffffffffffffffffff",
          "blockHash": "0x6658df6b89f7c40d7070cf61ae0f7506dbc06e5a751571801389ea4f8b3d270f",
          "blockNumber": "0x3a5f28a",
          "blockTimestamp": "0x6a184816",
          "transactionHash": "0x07eee1b5320bb8d9b17aa0ee89fe7d30a2315dffec978f14d226560db33fb7ef",
          "transactionIndex": "0x3",
          "logIndex": "0x12",
          "removed": false
        }
      ],
      "logsBloom": "0x00000000000000000000000000000000000000000000000000000000000000000000000000000000000000000000000200000000000000000100000000200000000000000000000000000000000000000000000000000040020000000000000000000000000001000000000000000000000000000000800000000000000000000800000000000000000000000000000000000000000000000000000000000000020000000000010000000000000000000000000000000000000000000000100000000000000000000000000000000000000000000000000000000000000000000010000000000000000000000000000000000000000000000000000000000000",
      "transactionHash": "0x07eee1b5320bb8d9b17aa0ee89fe7d30a2315dffec978f14d226560db33fb7ef",
      "transactionIndex": "0x3",
      "blockHash": "0x6658df6b89f7c40d7070cf61ae0f7506dbc06e5a751571801389ea4f8b3d270f",
      "blockNumber": "0x3a5f28a",
      "gasUsed": "0xb4a6",
      "effectiveGasPrice": "0x1312d01",
      "blobGasUsed": "0x9c40",
      "from": "0x39699c011d062dbdb058a81644e40002e88e5ce8",
      "to": "0xca7a320788088a333cfe93b4c6d3035d03759779",
      "contractAddress": null
    }
  ],
  "libraries": [],
  "pending": [],
  "returns": {},
  "timestamp": 1779976213589,
  "chain": 196,
  "commit": null
}